:020000040000FA
:04000000BCEF0DF054
:10060000003F065B4F666D7D077F6F777C395E79B3
:1006100071536F6D61203D205242332020202020F5
:10062000004D756C74203D20524235202020202042
:100630000053756274726163616F203D20524234D1
:1006400000446976203D202A202020202020000020
:10065000000E2A6E020E296E2B682C682D682E68FB
:1006600020EE2FF010EE13F00F0EDBCFE3FFE806C5
:10067000FCE202EC0DF032EC0EF09AEC0CF00BEC1C
:100680000EF0060EC16E9368000E816E110E096E9B
:10069000060E0A6E000E0C6E010E0B6E2BEC0AF0AD
:1006A000310E096E060E0A6E000E0C6E020E0B6EF7
:1006B0002BEC0AF0210E096E060E0A6E000E0C6E6F
:1006C000030E0B6E2BEC0AF0410E096E060E0A6E3D
:1006D000000E0C6E040E0B6E2BEC0AF0060EC16EB3
:1006E0009368000E816E81B678EF03F07AEF03F025
:1006F0007EEF03F0000E406E000E3F6E81B883EF78
:1007000003F085EF03F089EF03F0000E406E010E59
:100710003F6E81BA8EEF03F090EF03F094EF03F099
:10072000000E406E020E3F6E000EC16E000E936E04
:100730002DEC0EF02350011809E124500218D8B412
:10074000A4EF03F0A6EF03F024EF05F02DEC0EF07C
:1007500001C023F002C024F02DEC0EF001A6B3EF8F
:1007600003F0B5EF03F0CFEF03F09FEC0DF0000EB8
:100770000F6E010ED6EC0CF029B0C1EF03F0C3EF01
:1007800003F0C9EF03F0000E2C6E010E2B6ECDEFBF
:1007900003F0000E2E6E010E2D6E294A2A2A2DEC32
:1007A0000EF001AED6EF03F0D8EF03F0F2EF03F056
:1007B0009FEC0DF0000E0F6E020ED6EC0CF029B07F
:1007C000E4EF03F0E6EF03F0ECEF03F0000E2C6E25
:1007D000020E2B6EF0EF03F0000E2E6E020E2D6E49
:1007E000294A2A2A2DEC0EF002A6F9EF03F0FBEFBE
:1007F00003F015EF04F09FEC0DF0000E0F6E030EEA
:10080000D6EC0CF029B007EF04F009EF04F00FEF7D
:1008100004F0000E2C6E030E2B6E13EF04F0000E8E
:100820002E6E030E2D6E294A2A2A2DEC0EF001A4FD
:100830001CEF04F01EEF04F038EF04F09FEC0DF015
:10084000000E0F6E040ED6EC0CF029B02AEF04F067
:100850002CEF04F032EF04F0000E2C6E040E2B6E21
:1008600036EF04F0000E2E6E040E2D6E294A2A2A51
:100870002DEC0EF001AC3FEF04F041EF04F05BEF24
:1008800004F09FEC0DF0000E0F6E050ED6EC0CF090
:1008900029B04DEF04F04FEF04F055EF04F0000ED7
:1008A0002C6E050E2B6E59EF04F0000E2E6E050E09
:1008B0002D6E294A2A2A2DEC0EF002A462EF04F0D4
:1008C00064EF04F07EEF04F09FEC0DF0000E0F6E6D
:1008D000060ED6EC0CF029B070EF04F072EF04F0C5
:1008E00078EF04F0000E2C6E060E2B6E7CEF04F0F9
:1008F000000E2E6E060E2D6E294A2A2A2DEC0EF0C1
:1009000001A285EF04F087EF04F0A1EF04F09FEC63
:100910000DF0000E0F6E070ED6EC0CF029B093EF21
:1009200004F095EF04F09BEF04F0000E2C6E070E20
:100930002B6E9FEF04F0000E2E6E070E2D6E294ACF
:100940002A2A2DEC0EF001AAA8EF04F0AAEF04F079
:10095000C4EF04F09FEC0DF0000E0F6E080ED6EC05
:100960000CF029B0B6EF04F0B8EF04F0BEEF04F0DD
:10097000000E2C6E080E2B6EC2EF04F0000E2E6ED1
:10098000080E2D6E294A2A2A2DEC0EF002A2CBEF7A
:1009900004F0CDEF04F0E7EF04F09FEC0DF0000E53
:1009A0000F6E090ED6EC0CF029B0D9EF04F0DBEF96
:1009B00004F0E1EF04F0000E2C6E090E2B6EE5EF53
:1009C00004F0000E2E6E090E2D6E294A2A2A2DECF7
:1009D0000EF001A8EEEF04F0F0EF04F00AEF05F0DE
:1009E0009FEC0DF0000E0F6E000ED6EC0CF029B04F
:1009F000FCEF04F0FEEF04F004EF05F0000E2C6EA7
:100A0000000E2B6E08EF05F0000E2E6E000E2D6E00
:100A1000294A2A2A2DEC0EF002A011EF05F013EF5F
:100A200005F017EF05F0000E4A6E010E496E2DEC31
:100A30000EF001A01EEF05F020EF05F024EF05F009
:100A4000000E406E030E3F6E2B2808E12C28D8B410
:100A50002CEF05F02EEF05F034EF05F0000E026EDE
:100A6000010E016E57EC0DF02D2808E12E28D8B4A8
:100A70003CEF05F03EEF05F044EF05F0000E026E8E
:100A8000020E016E57EC0DF03F504010D8A44BEF12
:100A900005F04DEF05F07CEF05F02B2808E12C2840
:100AA000D8B455EF05F057EF05F07CEF05F02D2891
:100AB00008E12E28D8B45FEF05F061EF05F07CEF78
:100AC00005F049044A10D8A468EF05F06AEF05F074
:100AD0007CEF05F02D502B24276E2E502C20286EF5
:100AE00027C011F028C012F0A8EC0BF03F68406856
:100AF0002B682C682D682E683F044010D8A483EF23
:100B000005F085EF05F0B4EF05F02B2808E12C285F
:100B1000D8B48DEF05F08FEF05F0B4EF05F02D2878
:100B200008E12E28D8B497EF05F099EF05F0B4EF5F
:100B300005F049044A10D8A4A0EF05F0A2EF05F093
:100B4000B4EF05F02D502B5C276E2E502C58286EDC
:100B500027C011F028C012F0A8EC0BF03F684068E5
:100B60002B682C682D682E68020E3F184010D8A400
:100B7000BCEF05F0BEEF05F0F5EF05F02B2808E11E
:100B80002C28D8B4C6EF05F0C8EF05F0F5EF05F056
:100B90002D2808E12E28D8B4D0EF05F0D2EF05F0CB
:100BA000F5EF05F049044A10D8A4D9EF05F0DBEFC2
:100BB00005F0F5EF05F02BC001F02CC002F02DC0C0
:100BC00003F02EC004F0EAEC0DF001C027F002C0E3
:100BD00028F027C011F028C012F0A8EC0BF03F68F5
:100BE00040682B682C682D682E68030E3F18401053
:100BF000D8A4FDEF05F0FFEF05F036EF06F02B2847
:100C000008E12C28D8B407EF06F009EF06F036EF1C
:100C100006F02D2808E12E28D8B411EF06F013EFC6
:100C200006F036EF06F049044A10D8A41AEF06F091
:100C30001CEF06F036EF06F02BC001F02CC002F0DE
:100C40002DC003F02EC004F046EC0BF001C027F0DD
:100C500002C028F027C011F028C012F0A8EC0BF059
:100C60003F6840682B682C682D682E6849044A103C
:100C7000D8A43DEF06F03FEF06F058EF06F0000E67
:100C8000026E010E016E7DEC0DF0000E026E000E84
:100C9000016E7DEC0DF0FF0E026E016857EC0DF059
:100CA000000E4A6E000E496E000E486E010E476E31
:100CB000000E266E000E256E26BE68EF06F0840E2E
:100CC000255C030E2658D8A068EF06F06AEF06F000
:100CD0006CEF06F070EF06F0254A262A5CEF06F06E
:100CE00083EC09F0C6EC08F06EEF03F000EF00F0C3
:100CF00002BE86EF06F0025007E1080E015CD8B094
:100D000084EF06F086EF06F0B0EF06F00350041013
:100D1000D8B48DEF06F08FEF06F09FEF06F001C01C
:100D200005F0010E066E052A98EF06F0D8900636FB
:100D3000052E96EF06F0065092129EEF07F001C0C6
:100D400005F0010E066E052AA8EF06F0D8900636CB
:100D5000052EA6EF06F00650FF0A92169EEF07F04A
:100D600002BEBEEF06F0025007E1100E015CD8B0E3
:100D7000BCEF06F0BEEF06F0ECEF06F003500410F7
:100D8000D8B4C5EF06F0C7EF06F0D9EF06F001C002
:100D900005F0F80E0526010E066E052AD2EF06F0C4
:100DA000D8900636052ED0EF06F0065093129EEF2F
:100DB00007F001C005F0F80E0526010E066E052AA3
:100DC000E4EF06F0D8900636052EE2EF06F0065066
:100DD000FF0A93169EEF07F002BEFAEF06F00250EC
:100DE00007E1180E015CD8B0F8EF06F0FAEF06F054
:100DF00028EF07F003500410D8B401EF07F003EF19
:100E000007F015EF07F001C005F0F00E0526010E02
:100E1000066E052A0EEF07F0D8900636052E0CEF69
:100E200007F0065094129EEF07F001C005F0F00E97
:100E30000526010E066E052A20EF07F0D89006362B
:100E4000052E1EEF07F00650FF0A94169EEF07F0DE
:100E500002BE36EF07F0025007E1200E015CD8B069
:100E600034EF07F036EF07F064EF07F0035004109B
:100E7000D8B43DEF07F03FEF07F051EF07F001C0A6
:100E800005F0E80E0526010E066E052A4AEF07F06A
:100E9000D8900636052E48EF07F0065095129EEFC3
:100EA00007F001C005F0E80E0526010E066E052AC2
:100EB0005CEF07F0D8900636052E5AEF07F0065083
:100EC000FF0A95169EEF07F002BE72EF07F0025080
:100ED00007E1280E015CD8B070EF07F072EF07F061
:100EE0009EEF07F003500410D8B479EF07F07BEFC2
:100EF00007F08DEF07F001C005F0E00E0526010EAA
:100F0000066E052A86EF07F0D8900636052E84EF88
:100F100007F0065096129EEF07F001C005F0E00EB4
:100F20000526010E066E052A98EF07F0D8900636C2
:100F3000052E96EF07F00650FF0A9616120002BE25
:100F4000ADEF07F0025007E1080E015CD8B0ABEF3F
:100F500007F0ADEF07F0D7EF07F003500410D8B457
:100F6000B4EF07F0B6EF07F0C6EF07F001C005F0E9
:100F7000010E066E052ABFEF07F0D8900636052E43
:100F8000BDEF07F006508012C5EF08F001C005F074
:100F9000010E066E052ACFEF07F0D8900636052E13
:100FA000CDEF07F00650FF0A8016C5EF08F002BE2D
:100FB000E5EF07F0025007E1100E015CD8B0E3EF57
:100FC00007F0E5EF07F013EF08F0F80E0126FF0E2B
:100FD000022203500410D8B4F0EF07F0F2EF07F04C
:100FE00002EF08F001C005F0010E066E052AFBEFC6
:100FF00007F0D8900636052EF9EF07F0065081125B
:10100000C5EF08F001C005F0010E066E052A0BEFD2
:1010100008F0D8900636052E09EF08F00650FF0AB2
:101020008116C5EF08F002BE21EF08F0025007E17B
:10103000180E015CD8B01FEF08F021EF08F04FEF59
:1010400008F0F00E0126FF0E022203500410D8B45F
:101050002CEF08F02EEF08F03EEF08F001C005F08D
:10106000010E066E052A37EF08F0D8900636052ED9
:1010700035EF08F006508212C5EF08F001C005F008
:10108000010E066E052A47EF08F0D8900636052EA9
:1010900045EF08F00650FF0A8216C5EF08F002BEC1
:1010A0005DEF08F0025007E1200E015CD8B05BEF65
:1010B00008F05DEF08F08BEF08F0E80E0126FF0E58
:1010C000022203500410D8B468EF08F06AEF08F069
:1010D0007AEF08F001C005F0010E066E052A73EFE5
:1010E00008F0D8900636052E71EF08F006508312EE
:1010F000C5EF08F001C005F0010E066E052A83EF6A
:1011000008F0D8900636052E81EF08F00650FF0A49
:101110008316C5EF08F002BE99EF08F0025007E110
:10112000280E015CD8B097EF08F099EF08F0C5EFF2
:1011300008F0E00E0126FF0E022203500410D8B47E
:10114000A4EF08F0A6EF08F0B6EF08F001C005F034
:10115000010E066E052AAFEF08F0D8900636052E70
:10116000ADEF08F006508412C5EF08F001C005F09D
:10117000010E066E052ABFEF08F0D8900636052E40
:10118000BDEF08F00650FF0A8416120083CF06F068
:101190000F0E9512000E0A6EF80E93160AC001F09B
:1011A000010E026E012AD7EF08F0D8900236012E08
:1011B000D5EF08F002509312070E81120AC001F019
:1011C000010E026E012AE7EF08F0D8900236012ED8
:1011D000E5EF08F00250FF0A8116000E086E000EBF
:1011E000076E074A082A08BEFFEF08F0085009E119
:1011F0000A0E075CD8A0FFEF08F001EF09F0F1EF4D
:1012000008F0000E096E09C001F0010E026E012AFD
:101210000CEF09F0D8900236012E0AEF09F00250C7
:1012200083140009D8A417EF09F019EF09F031EF82
:1012300009F00A50040DF3500924016E010E026EEC
:10124000000E036E012A28EF09F0D890023603360B
:10125000012E25EF09F002504312035044124BEFC8
:1012600009F00A50040DF3500924016E010E026EBC
:10127000000E036E012A40EF09F0D89002360336C3
:10128000012E3DEF09F0021C046E031C056E045094
:10129000431605504416092A030E096452EF09F05B
:1012A00054EF09F003EF09F00A2A020E0A645BEF1B
:1012B00009F05DEF09F0CCEF08F04350411807E169
:1012C00044504218D8A467EF09F069EF09F06CEFB9
:1012D00009F0500672EF09F00A0E506E43C041F05B
:1012E00044C042F05050D8A478EF09F07AEF09F0EA
:1012F0007EEF09F041C045F042C046F006C083FFD2
:10130000000E956E1200000E956E000E026E020E1B
:10131000016E000E046E000E036E9FEC07F0000ECF
:10132000026E030E016E000E046E000E036E9FEC43
:1013300007F0000E026E040E016E000E046E000E29
:10134000036E9FEC07F0000E026E050E016E000E9C
:10135000046E000E036E9FEC07F0000E836E0DEF1F
:101360000AF0010E4E24F66EF76A060EF722080008
:10137000F5CF83FF000E026E020E016E000E046EAA
:10138000010E036E9FEC07F0010E4F6E2AEF0AF07C
:10139000010E4D24F66EF76A060EF7220800F5CF0F
:1013A00083FF000E026E030E016E000E046E010E2E
:1013B000036E9FEC07F0020E4F6E2AEF0AF0010E4B
:1013C0004C24F66EF76A060EF7220800F5CF83FF6D
:1013D000000E026E040E016E000E046E010E036E0E
:1013E0009FEC07F0030E4F6E2AEF0AF0010E4B241C
:1013F000F66EF76A060EF7220800F5CF83FF000E9F
:10140000026E050E016E000E046E010E036E9FEC5F
:1014100007F0000E4F6E2AEF0AF04F50076E086A71
:101420000850000AD8B417EF0AF009EF0AF0075085
:10143000000AD8B4B1EF09F0010AD8B4C8EF09F036
:10144000030AD8B4DFEF09F0010AD8B4F6EF09F0C7
:1014500009EF0AF012000B040C10D8A432EF0AF0C6
:1014600034EF0AF04DEF0AF0000E0F6E0F50092412
:101470000D6E000E0A200E6E0DC0F6FF0EC0F7FFB7
:101480000800F5502DEC0DF00F2A0F0E0F644BEFF6
:101490000AF04DEF0AF036EF0AF0020E0B180C10AE
:1014A000D8A455EF0AF057EF0AF073EF0AF0C00E18
:1014B0005BEC0CF0000E0F6E0F5009240D6E000E49
:1014C0000A200E6E0DC0F6FF0EC0F7FF0800F550A3
:1014D0002DEC0DF00F2A0F0E0F6471EF0AF073EF71
:1014E0000AF05CEF0AF0030E0B180C10D8A47BEF87
:1014F0000AF07DEF0AF099EF0AF0900E5BEC0CF029
:10150000000E0F6E0F5009240D6E000E0A200E6E95
:101510000DC0F6FF0EC0F7FF0800F5502DEC0DF0E2
:101520000F2A0F0E0F6497EF0AF099EF0AF082EF7F
:101530000AF0040E0B180C10D8A4A1EF0AF0A3EFC8
:101540000AF0BFEF0AF0D00E5BEC0CF0000E0F6E4D
:101550000F5009240D6E000E0A200E6E0DC0F6FF0E
:101560000EC0F7FF0800F5502DEC0DF00F2A0F0EFE
:101570000F64BDEF0AF0BFEF0AF0A8EF0AF0120007
:10158000000E0A6E08BEC9EF0AF0C7EF0AF0D3EFEB
:101590000AF0081E071E061E056C000E0622072212
:1015A0000822010E0A6E04BEDAEF0AF0D8EF0AF044
:1015B000E4EF0AF0041E031E021E016C000E02225C
:1015C00003220422010E0A1A000E0B6E000E0C6E8E
:1015D000000E0D6E000E0E6E05500610071008105E
:1015E000D8B4F5EF0AF0F7EF0AF02DEF0BF0010E8B
:1015F000096E01EF0BF0D89005360636073608362F
:10160000092A08AE06EF0BF008EF0BF0FBEF0AF02B
:10161000D8900B360C360D360E360550015C065050
:1016200002580750035808500458D8A01AEF0BF07E
:101630001CEF0BF025EF0BF00550015E0650025A2F
:101640000750035A0850045A0B80D89008320732CA
:1016500006320532092E08EF0BF00A50D8B433EFEA
:101660000BF035EF0BF03DEF0BF00E1E0D1E0C1EB8
:101670000B6C000E0C220D220E220BC001F00CC0D0
:1016800002F00DC003F00EC004F01200000E066E52
:1016900004BE4FEF0BF04DEF0BF055EF0BF0036C6A
:1016A000041ED8B0042A010E066E02BE5CEF0BF0D9
:1016B0005AEF0BF062EF0BF0016C021ED8B0022A59
:1016C000010E061A000E086E000E076E035004107D
:1016D000D8B46DEF0BF06FEF0BF097EF0BF0010E3E
:1016E000056E77EF0BF0D89003360436052A04AE6A
:1016F0007CEF0BF07EEF0BF073EF0BF0D89007361A
:1017000008360350015C04500258D8A08AEF0BF051
:101710008CEF0BF091EF0BF00350015E0450025A76
:101720000780D89004320332052E7EEF0BF006506E
:10173000D8B49DEF0BF09FEF0BF0A3EF0BF0076C0D
:10174000081ED8B0082A07C001F008C002F0120035
:10175000030E0F6E11C009F012C00AF0000E0C6EDD
:101760000A0E0B6E03EC0CF00950D6EC0CF0020ED6
:101770000F6E000E046E0A0E036E11C001F012C04F
:1017800002F046EC0BF001C009F002C00AF0000EB6
:101790000C6E0A0E0B6E03EC0CF00950D6EC0CF03C
:1017A000010E0F6E000E046E640E036E11C001F088
:1017B00012C002F046EC0BF001C009F002C00AF0C2
:1017C000000E0C6E0A0E0B6E03EC0CF00950D6ECFA
:1017D0000CF0000E0F6E030E046EE80E036E11C0C7
:1017E00001F012C002F046EC0BF001C009F002C09B
:1017F0000AF0000E0C6E0A0E0B6E03EC0CF0095092
:10180000D6EC0CF01200000E0E6E0ABE0CEF0CF0BF
:101810000AEF0CF012EF0CF0096C0A1ED8B00A2A7D
:10182000010E0E6E0CBE19EF0CF017EF0CF01DEF51
:101830000CF00B6C0C1ED8B00C2A0B500C10D8B44A
:1018400024EF0CF026EF0CF04AEF0CF0010E0D6EB9
:101850002EEF0CF0D8900B360C360D2A0CAE33EF71
:101860000CF035EF0CF02AEF0CF00B50095C0C502B
:101870000A58D8A03EEF0CF040EF0CF044EF0CF00B
:101880000B50095E0C500A5AD8900C320B320D2EB8
:1018900035EF0CF00E50D8B450EF0CF052EF0CF0C6
:1018A00056EF0CF0096C0A1ED8B00A2A09C009F0DC
:1018B0000AC00AF01200086E83CF07F0000E956E82
:1018C000000E026E220E016E000E046E000E036EFC
:1018D0009FEC07F008C083FF000E026E210E016E20
:1018E000000E046E010E036E9FEC07F0000E026EF8
:1018F000210E016E000E046E000E036E9FEC07F0C9
:1019000007C083FF020E0818D8B489EF0CF08BEFE4
:101910000CF093EF0CF00804D8A491EF0CF093EFC7
:101920000CF097EF0CF0FDEC0DF099EF0CF018ECCB
:101930000EF01200000E026E220E016E000E046EFA
:10194000000E036E78EC06F0000E026E210E016EA2
:10195000000E046E000E036E78EC06F0000E956E1D
:10196000FDEC0DF0FDEC0DF0FDEC0DF0FDEC0DF0DF
:10197000FDEC0DF0380E5BEC0CF0FDEC0DF0FDEC29
:101980000DF0380E5BEC0CF0FDEC0DF0380E5BEC5E
:101990000CF0380E5BEC0CF0060E5BEC0CF00C0E51
:1019A0005BEC0CF0010E5BEC0CF01200106E0F50B3
:1019B000D8A4DDEF0CF0DFEF0CF0E1EF0CF010C07D
:1019C0004EF00F04D8A4E7EF0CF0E9EF0CF0EBEFCA
:1019D0000CF010C04DF0020E0F18D8A4F2EF0CF06E
:1019E000F4EF0CF0F6EF0CF010C04CF0030E0F18F3
:1019F000D8A4FDEF0CF0FFEF0CF001EF0DF010C0DC
:101A00004BF01200000E026E020E016E000E046E0C
:101A1000000E036E78EC06F0000E026E030E016EEF
:101A2000000E046E000E036E78EC06F0000E026EDF
:101A3000040E016E000E046E000E036E78EC06F0CC
:101A4000000E026E050E016E000E046E000E036E97
:101A500078EC06F0000E956E1200076E83CF08F04A
:101A6000000E956E000E026E220E016E000E046EC8
:101A7000010E036E9FEC07F007C083FF000E026E9D
:101A8000210E016E000E046E010E036E9FEC07F036
:101A9000000E026E210E016E000E046E000E036E2B
:101AA0009FEC07F008C083FF18EC0EF01200949032
:101AB000969001040210D8A460EF0DF062EF0DF0D3
:101AC00064EF0DF082708490020E01180210D8A409
:101AD0006CEF0DF06EEF0DF070EF0DF084708290F2
:101AE000012806E10228D8A478EF0DF07AEF0DF076
:101AF0007CEF0DF082908490120001040210D8A4B3
:101B000084EF0DF086EF0DF089EF0DF094848AEFED
:101B10000DF09494000E046E000E036E034A042A26
:101B200004BE9CEF0DF0300E035C750E0458D8A077
:101B30009CEF0DF09EEF0DF08EEF0DF012004904BA
:101B40004A10D8B4A6EF0DF0A8EF0DF0B1EF0DF0EC
:101B500047044810D8A4AFEF0DF0B1EF0DF0BBEF84
:101B60000DF0000E4A6E000E496E000E126E000E51
:101B7000116EA8EC0BF01200480EF66E1C0EF76EFC
:101B8000000EF86E00EE2FF010EE12F00900F5CF07
:101B9000EEFFE550E150FAE100EE41F0100EEE6A82
:101BA000E806FDE1000EF86E000128EF03F0480E94
:101BB000016EE80E026E010E036E000E046E0FC081
:101BC00005F010C006F0076A086AC0EC0AF00104CC
:101BD000CB6E120001500302F3CF05F0F4CF06F0F4
:101BE00001500402F350062602500302F350062669
:101BF00005C001F006C002F01200000E026E18ECE3
:101C00000EF0022A310E026408EF0EF00AEF0EF019
:101C1000FFEF0DF012009494030ECA12CA840C0E4A
:101C2000BD6E000E106E640E0F6ED7EC0DF012003C
:101C3000000E016E012A180E016421EF0EF023EF51
:101C40000EF01AEF0EF01200536F6D61203D202A46
:101C50000000000000000000FFFF45C001F046C08A
:0E1C600002F01200070E93160F0E95121200DE
:020000040020DA
:08000000FFFFFFFFFFFFFFFF00
:020000040030CA
:0E000000FF027100FF8380FF0FC00FE00F4072
:00000001FF
